{
  "contractName": "TestUniswap",
  "abi": [
    {
      "inputs": [
        {
          "internalType": "address",
          "name": "_tokenIn",
          "type": "address"
        },
        {
          "internalType": "address",
          "name": "_tokenOut",
          "type": "address"
        },
        {
          "internalType": "uint256",
          "name": "_amountIn",
          "type": "uint256"
        },
        {
          "internalType": "uint256",
          "name": "_amountOutMin",
          "type": "uint256"
        },
        {
          "internalType": "address",
          "name": "_to",
          "type": "address"
        }
      ],
      "name": "swap",
      "outputs": [],
      "stateMutability": "nonpayable",
      "type": "function"
    }
  ],
  "bytecode": "0x608060405234801561000f575f80fd5b506108528061001d5f395ff3fe608060405234801561000f575f80fd5b5060043610610029575f3560e01c8063d5bcb9b51461002d575b5f80fd5b610047600480360381019061004291906103e4565b610049565b005b8473ffffffffffffffffffffffffffffffffffffffff166323b872dd3330866040518463ffffffff1660e01b815260040161008693929190610479565b6020604051808303815f875af11580156100a2573d5f803e3d5ffd5b505050506040513d601f19601f820116820180604052508101906100c691906104e3565b508473ffffffffffffffffffffffffffffffffffffffff1663095ea7b3737a250d5630b4cf539739df2c5dacb4c659f2488d856040518363ffffffff1660e01b815260040161011692919061050e565b6020604051808303815f875af1158015610132573d5f803e3d5ffd5b505050506040513d601f19601f8201168201806040525081019061015691906104e3565b506060600367ffffffffffffffff81111561017457610173610535565b5b6040519080825280602002602001820160405280156101a25781602001602082028036833780820191505090505b50905085815f815181106101b9576101b8610562565b5b602002602001019073ffffffffffffffffffffffffffffffffffffffff16908173ffffffffffffffffffffffffffffffffffffffff168152505073c02aaa39b223fe8d0a0e5c4f27ead9083c756cc28160018151811061021c5761021b610562565b5b602002602001019073ffffffffffffffffffffffffffffffffffffffff16908173ffffffffffffffffffffffffffffffffffffffff1681525050848160028151811061026b5761026a610562565b5b602002602001019073ffffffffffffffffffffffffffffffffffffffff16908173ffffffffffffffffffffffffffffffffffffffff1681525050737a250d5630b4cf539739df2c5dacb4c659f2488d73ffffffffffffffffffffffffffffffffffffffff166338ed173985858486426040518663ffffffff1660e01b81526004016102fa959493929190610646565b5f604051808303815f875af1158015610315573d5f803e3d5ffd5b505050506040513d5f823e3d601f19601f8201168201806040525081019061033d91906107d5565b50505050505050565b5f604051905090565b5f80fd5b5f80fd5b5f73ffffffffffffffffffffffffffffffffffffffff82169050919050565b5f61038082610357565b9050919050565b61039081610376565b811461039a575f80fd5b50565b5f813590506103ab81610387565b92915050565b5f819050919050565b6103c3816103b1565b81146103cd575f80fd5b50565b5f813590506103de816103ba565b92915050565b5f805f805f60a086880312156103fd576103fc61034f565b5b5f61040a8882890161039d565b955050602061041b8882890161039d565b945050604061042c888289016103d0565b935050606061043d888289016103d0565b925050608061044e8882890161039d565b9150509295509295909350565b61046481610376565b82525050565b610473816103b1565b82525050565b5f60608201905061048c5f83018661045b565b610499602083018561045b565b6104a6604083018461046a565b949350505050565b5f8115159050919050565b6104c2816104ae565b81146104cc575f80fd5b50565b5f815190506104dd816104b9565b92915050565b5f602082840312156104f8576104f761034f565b5b5f610505848285016104cf565b91505092915050565b5f6040820190506105215f83018561045b565b61052e602083018461046a565b9392505050565b7f4e487b71000000000000000000000000000000000000000000000000000000005f52604160045260245ffd5b7f4e487b71000000000000000000000000000000000000000000000000000000005f52603260045260245ffd5b5f81519050919050565b5f82825260208201905092915050565b5f819050602082019050919050565b6105c181610376565b82525050565b5f6105d283836105b8565b60208301905092915050565b5f602082019050919050565b5f6105f48261058f565b6105fe8185610599565b9350610609836105a9565b805f5b8381101561063957815161062088826105c7565b975061062b836105de565b92505060018101905061060c565b5085935050505092915050565b5f60a0820190506106595f83018861046a565b610666602083018761046a565b818103604083015261067881866105ea565b9050610687606083018561045b565b610694608083018461046a565b9695505050505050565b5f80fd5b5f601f19601f8301169050919050565b6106bb826106a2565b810181811067ffffffffffffffff821117156106da576106d9610535565b5b80604052505050565b5f6106ec610346565b90506106f882826106b2565b919050565b5f67ffffffffffffffff82111561071757610716610535565b5b602082029050602081019050919050565b5f80fd5b5f8151905061073a816103ba565b92915050565b5f61075261074d846106fd565b6106e3565b9050808382526020820190506020840283018581111561077557610774610728565b5b835b8181101561079e578061078a888261072c565b845260208401935050602081019050610777565b5050509392505050565b5f82601f8301126107bc576107bb61069e565b5b81516107cc848260208601610740565b91505092915050565b5f602082840312156107ea576107e961034f565b5b5f82015167ffffffffffffffff81111561080757610806610353565b5b610813848285016107a8565b9150509291505056fea2646970667358221220ed2c76c30a664e8bfee0dc8722b3744d050f8cb1944674bff41f814032604f0364736f6c63430008150033",
  "immutableReferences": {},
  "source": "// SPDX-License-Identifier: MIT\n\npragma solidity ^0.8.0;\n\nimport \"./interfaces/IERC20.sol\";\nimport \"./interfaces/Uniswap.sol\";\n\ncontract TestUniswap {\n\n    address private constant UNISWAP_V2_Router = 0x7a250d5630B4cF539739dF2C5dAcb4c659F2488D;\n    address private constant WETH = 0xC02aaA39b223FE8D0A0e5C4F27eAD9083C756Cc2;\n\n    function swap(\n        address _tokenIn,\n        address _tokenOut,\n        uint256 _amountIn,\n        uint256 _amountOutMin,\n        address _to\n    ) external {   \n        IERC20(_tokenIn).transferFrom(msg.sender, address(this), _amountIn);\n        IERC20(_tokenIn).approve(UNISWAP_V2_Router, _amountIn);\n\n        address[] memory paths;\n        paths = new address[](3);\n        paths[0] = _tokenIn;\n        paths[1] = WETH;\n        paths[2] = _tokenOut;\n\n        IUniswapV2Router(UNISWAP_V2_Router).swapExactTokensForTokens(\n            _amountIn,\n            _amountOutMin,\n            paths,\n            _to,\n            block.timestamp\n        );\n    }\n}",
  "sourcePath": "/Users/pepukrit/Desktop/Software development/akaMiWP/DeFi-Uniswap-V2/contracts/TestUniswap.sol",
  "compiler": {
    "name": "solc",
    "version": "0.8.21+commit.d9974bed.Emscripten.clang"
  },
  "schemaVersion": "3.4.16",
  "updatedAt": "2024-05-10T11:00:58.400Z",
  "devdoc": {
    "kind": "dev",
    "methods": {},
    "version": 1
  },
  "userdoc": {
    "kind": "user",
    "methods": {},
    "version": 1
  }
}